{
  "_format": "hh-sol-artifact-1",
  "contractName": "TestTokenWithNameAndSymbolFlat",
  "sourceName": "contracts/TestTokenWithNameAndSymbolFlat.sol",
  "abi": [
    {
      "inputs": [
        {
          "internalType": "string",
          "name": "name",
          "type": "string"
        },
        {
          "internalType": "string",
          "name": "symbol",
          "type": "string"
        }
      ],
      "stateMutability": "nonpayable",
      "type": "constructor"
    },
    {
      "anonymous": false,
      "inputs": [
        {
          "indexed": true,
          "internalType": "address",
          "name": "owner",
          "type": "address"
        },
        {
          "indexed": true,
          "internalType": "address",
          "name": "spender",
          "type": "address"
        },
        {
          "indexed": false,
          "internalType": "uint256",
          "name": "value",
          "type": "uint256"
        }
      ],
      "name": "Approval",
      "type": "event"
    },
    {
      "anonymous": false,
      "inputs": [
        {
          "indexed": true,
          "internalType": "address",
          "name": "from",
          "type": "address"
        },
        {
          "indexed": true,
          "internalType": "address",
          "name": "to",
          "type": "address"
        },
        {
          "indexed": false,
          "internalType": "uint256",
          "name": "value",
          "type": "uint256"
        }
      ],
      "name": "Transfer",
      "type": "event"
    },
    {
      "inputs": [
        {
          "internalType": "address",
          "name": "owner",
          "type": "address"
        },
        {
          "internalType": "address",
          "name": "spender",
          "type": "address"
        }
      ],
      "name": "allowance",
      "outputs": [
        {
          "internalType": "uint256",
          "name": "",
          "type": "uint256"
        }
      ],
      "stateMutability": "view",
      "type": "function"
    },
    {
      "inputs": [
        {
          "internalType": "address",
          "name": "spender",
          "type": "address"
        },
        {
          "internalType": "uint256",
          "name": "amount",
          "type": "uint256"
        }
      ],
      "name": "approve",
      "outputs": [
        {
          "internalType": "bool",
          "name": "",
          "type": "bool"
        }
      ],
      "stateMutability": "nonpayable",
      "type": "function"
    },
    {
      "inputs": [
        {
          "internalType": "address",
          "name": "account",
          "type": "address"
        }
      ],
      "name": "balanceOf",
      "outputs": [
        {
          "internalType": "uint256",
          "name": "",
          "type": "uint256"
        }
      ],
      "stateMutability": "view",
      "type": "function"
    },
    {
      "inputs": [],
      "name": "decimals",
      "outputs": [
        {
          "internalType": "uint8",
          "name": "",
          "type": "uint8"
        }
      ],
      "stateMutability": "view",
      "type": "function"
    },
    {
      "inputs": [
        {
          "internalType": "address",
          "name": "spender",
          "type": "address"
        },
        {
          "internalType": "uint256",
          "name": "subtractedValue",
          "type": "uint256"
        }
      ],
      "name": "decreaseAllowance",
      "outputs": [
        {
          "internalType": "bool",
          "name": "",
          "type": "bool"
        }
      ],
      "stateMutability": "nonpayable",
      "type": "function"
    },
    {
      "inputs": [
        {
          "internalType": "address",
          "name": "spender",
          "type": "address"
        },
        {
          "internalType": "uint256",
          "name": "addedValue",
          "type": "uint256"
        }
      ],
      "name": "increaseAllowance",
      "outputs": [
        {
          "internalType": "bool",
          "name": "",
          "type": "bool"
        }
      ],
      "stateMutability": "nonpayable",
      "type": "function"
    },
    {
      "inputs": [
        {
          "internalType": "address",
          "name": "mintAddress",
          "type": "address"
        },
        {
          "internalType": "uint256",
          "name": "totalSupply",
          "type": "uint256"
        }
      ],
      "name": "mint",
      "outputs": [],
      "stateMutability": "nonpayable",
      "type": "function"
    },
    {
      "inputs": [],
      "name": "name",
      "outputs": [
        {
          "internalType": "string",
          "name": "",
          "type": "string"
        }
      ],
      "stateMutability": "view",
      "type": "function"
    },
    {
      "inputs": [
        {
          "internalType": "uint8",
          "name": "decimals",
          "type": "uint8"
        }
      ],
      "name": "setDecimalPlaces",
      "outputs": [],
      "stateMutability": "nonpayable",
      "type": "function"
    },
    {
      "inputs": [],
      "name": "symbol",
      "outputs": [
        {
          "internalType": "string",
          "name": "",
          "type": "string"
        }
      ],
      "stateMutability": "view",
      "type": "function"
    },
    {
      "inputs": [],
      "name": "totalSupply",
      "outputs": [
        {
          "internalType": "uint256",
          "name": "",
          "type": "uint256"
        }
      ],
      "stateMutability": "view",
      "type": "function"
    },
    {
      "inputs": [
        {
          "internalType": "address",
          "name": "recipient",
          "type": "address"
        },
        {
          "internalType": "uint256",
          "name": "amount",
          "type": "uint256"
        }
      ],
      "name": "transfer",
      "outputs": [
        {
          "internalType": "bool",
          "name": "",
          "type": "bool"
        }
      ],
      "stateMutability": "nonpayable",
      "type": "function"
    },
    {
      "inputs": [
        {
          "internalType": "address",
          "name": "sender",
          "type": "address"
        },
        {
          "internalType": "address",
          "name": "recipient",
          "type": "address"
        },
        {
          "internalType": "uint256",
          "name": "amount",
          "type": "uint256"
        }
      ],
      "name": "transferFrom",
      "outputs": [
        {
          "internalType": "bool",
          "name": "",
          "type": "bool"
        }
      ],
      "stateMutability": "nonpayable",
      "type": "function"
    }
  ],
  "bytecode": "0x60806040523480156200001157600080fd5b5060405162000ea038038062000ea0833981810160405260408110156200003757600080fd5b81019080805160405193929190846401000000008211156200005857600080fd5b9083019060208201858111156200006e57600080fd5b82516401000000008111828201881017156200008957600080fd5b82525081516020918201929091019080838360005b83811015620000b85781810151838201526020016200009e565b50505050905090810190601f168015620000e65780820380516001836020036101000a031916815260200191505b50604052602001805160405193929190846401000000008211156200010a57600080fd5b9083019060208201858111156200012057600080fd5b82516401000000008111828201881017156200013b57600080fd5b82525081516020918201929091019080838360005b838110156200016a57818101518382015260200162000150565b50505050905090810190601f168015620001985780820380516001836020036101000a031916815260200191505b50604052505082518391508290620001b8906003906020850190620001fa565b508051620001ce906004906020840190620001fa565b505060058054601260ff1990911617610100600160a81b03191661010033021790555062000296915050565b828054600181600116156101000203166002900490600052602060002090601f016020900481019282601f106200023d57805160ff19168380011785556200026d565b828001600101855582156200026d579182015b828111156200026d57825182559160200191906001019062000250565b506200027b9291506200027f565b5090565b5b808211156200027b576000815560010162000280565b610bfa80620002a66000396000f3fe608060405234801561001057600080fd5b50600436106100df5760003560e01c8063395093511161008c57806395d89b411161006657806395d89b41146102af578063a457c2d7146102b7578063a9059cbb146102e3578063dd62ed3e1461030f576100df565b8063395093511461023157806340c10f191461025d57806370a0823114610289576100df565b806322e0195b116100bd57806322e0195b146101bb57806323b872dd146101dd578063313ce56714610213576100df565b806306fdde03146100e4578063095ea7b31461016157806318160ddd146101a1575b600080fd5b6100ec61033d565b6040805160208082528351818301528351919283929083019185019080838360005b8381101561012657818101518382015260200161010e565b50505050905090810190601f1680156101535780820380516001836020036101000a031916815260200191505b509250505060405180910390f35b61018d6004803603604081101561017757600080fd5b506001600160a01b0381351690602001356103d3565b604080519115158252519081900360200190f35b6101a96103f0565b60408051918252519081900360200190f35b6101db600480360360208110156101d157600080fd5b503560ff166103f6565b005b61018d600480360360608110156101f357600080fd5b506001600160a01b03813581169160208101359091169060400135610402565b61021b610489565b6040805160ff9092168252519081900360200190f35b61018d6004803603604081101561024757600080fd5b506001600160a01b038135169060200135610492565b6101db6004803603604081101561027357600080fd5b506001600160a01b0381351690602001356104e0565b6101a96004803603602081101561029f57600080fd5b50356001600160a01b0316610552565b6100ec61056d565b61018d600480360360408110156102cd57600080fd5b506001600160a01b0381351690602001356105ce565b61018d600480360360408110156102f957600080fd5b506001600160a01b038135169060200135610636565b6101a96004803603604081101561032557600080fd5b506001600160a01b038135811691602001351661064a565b60038054604080516020601f60026000196101006001881615020190951694909404938401819004810282018101909252828152606093909290918301828280156103c95780601f1061039e576101008083540402835291602001916103c9565b820191906000526020600020905b8154815290600101906020018083116103ac57829003601f168201915b5050505050905090565b60006103e76103e0610675565b8484610679565b50600192915050565b60025490565b6103ff81610765565b50565b600061040f84848461077b565b61047f8461041b610675565b61047a85604051806060016040528060288152602001610b2f602891396001600160a01b038a16600090815260016020526040812090610459610675565b6001600160a01b0316815260208101919091526040016000205491906108d6565b610679565b5060019392505050565b60055460ff1690565b60006103e761049f610675565b8461047a85600160006104b0610675565b6001600160a01b03908116825260208083019390935260409182016000908120918c16815292529020549061096d565b60055461010090046001600160a01b03163314610544576040805162461bcd60e51b815260206004820152600d60248201527f4d757374206265206f776e657200000000000000000000000000000000000000604482015290519081900360640190fd5b61054e82826109ce565b5050565b6001600160a01b031660009081526020819052604090205490565b60048054604080516020601f60026000196101006001881615020190951694909404938401819004810282018101909252828152606093909290918301828280156103c95780601f1061039e576101008083540402835291602001916103c9565b60006103e76105db610675565b8461047a85604051806060016040528060258152602001610ba06025913960016000610605610675565b6001600160a01b03908116825260208083019390935260409182016000908120918d168152925290205491906108d6565b60006103e7610643610675565b848461077b565b6001600160a01b03918216600090815260016020908152604080832093909416825291909152205490565b3390565b6001600160a01b0383166106be5760405162461bcd60e51b8152600401808060200182810382526024815260200180610b7c6024913960400191505060405180910390fd5b6001600160a01b0382166107035760405162461bcd60e51b8152600401808060200182810382526022815260200180610ae76022913960400191505060405180910390fd5b6001600160a01b03808416600081815260016020908152604080832094871680845294825291829020859055815185815291517f8c5be1e5ebec7d5bd14f71427d1e84f3dd0314c0f7b2291e5b200ac8c7c3b9259281900390910190a3505050565b6005805460ff191660ff92909216919091179055565b6001600160a01b0383166107c05760405162461bcd60e51b8152600401808060200182810382526025815260200180610b576025913960400191505060405180910390fd5b6001600160a01b0382166108055760405162461bcd60e51b8152600401808060200182810382526023815260200180610ac46023913960400191505060405180910390fd5b610810838383610abe565b61084d81604051806060016040528060268152602001610b09602691396001600160a01b03861660009081526020819052604090205491906108d6565b6001600160a01b03808516600090815260208190526040808220939093559084168152205461087c908261096d565b6001600160a01b038084166000818152602081815260409182902094909455805185815290519193928716927fddf252ad1be2c89b69c2b068fc378daa952ba7f163c4a11628f55a4df523b3ef92918290030190a3505050565b600081848411156109655760405162461bcd60e51b81526004018080602001828103825283818151815260200191508051906020019080838360005b8381101561092a578181015183820152602001610912565b50505050905090810190601f1680156109575780820380516001836020036101000a031916815260200191505b509250505060405180910390fd5b505050900390565b6000828201838110156109c7576040805162461bcd60e51b815260206004820152601b60248201527f536166654d6174683a206164646974696f6e206f766572666c6f770000000000604482015290519081900360640190fd5b9392505050565b6001600160a01b038216610a29576040805162461bcd60e51b815260206004820152601f60248201527f45524332303a206d696e7420746f20746865207a65726f206164647265737300604482015290519081900360640190fd5b610a3560008383610abe565b600254610a42908261096d565b6002556001600160a01b038216600090815260208190526040902054610a68908261096d565b6001600160a01b0383166000818152602081815260408083209490945583518581529351929391927fddf252ad1be2c89b69c2b068fc378daa952ba7f163c4a11628f55a4df523b3ef9281900390910190a35050565b50505056fe45524332303a207472616e7366657220746f20746865207a65726f206164647265737345524332303a20617070726f766520746f20746865207a65726f206164647265737345524332303a207472616e7366657220616d6f756e7420657863656564732062616c616e636545524332303a207472616e7366657220616d6f756e74206578636565647320616c6c6f77616e636545524332303a207472616e736665722066726f6d20746865207a65726f206164647265737345524332303a20617070726f76652066726f6d20746865207a65726f206164647265737345524332303a2064656372656173656420616c6c6f77616e63652062656c6f77207a65726fa26469706673582212204a517ff47431f16710c94fedce6efa8bd5991ec2f80ad39b1bd25b5b8735c43264736f6c63430007000033",
  "linkReferences": {},
  "deployedLinkReferences": {}
}