{
  "_format": "hh-sol-artifact-1",
  "contractName": "SimpleRewardDistributorFlat",
  "sourceName": "contracts/SimpleRewardDistributorFlat.sol",
  "abi": [
    {
      "inputs": [
        {
          "internalType": "address",
          "name": "token_",
          "type": "address"
        },
        {
          "internalType": "bytes32",
          "name": "merkleRoot_",
          "type": "bytes32"
        }
      ],
      "stateMutability": "nonpayable",
      "type": "constructor"
    },
    {
      "anonymous": false,
      "inputs": [
        {
          "indexed": false,
          "internalType": "uint256",
          "name": "index",
          "type": "uint256"
        },
        {
          "indexed": false,
          "internalType": "address",
          "name": "account",
          "type": "address"
        },
        {
          "indexed": false,
          "internalType": "uint256",
          "name": "amount",
          "type": "uint256"
        }
      ],
      "name": "Claimed",
      "type": "event"
    },
    {
      "inputs": [
        {
          "internalType": "uint256",
          "name": "index",
          "type": "uint256"
        },
        {
          "internalType": "address",
          "name": "account",
          "type": "address"
        },
        {
          "internalType": "uint256",
          "name": "amount",
          "type": "uint256"
        },
        {
          "internalType": "bytes32[]",
          "name": "merkleProof",
          "type": "bytes32[]"
        }
      ],
      "name": "claim",
      "outputs": [],
      "stateMutability": "nonpayable",
      "type": "function"
    },
    {
      "inputs": [],
      "name": "getMerkleRoot",
      "outputs": [
        {
          "internalType": "bytes32",
          "name": "",
          "type": "bytes32"
        }
      ],
      "stateMutability": "view",
      "type": "function"
    },
    {
      "inputs": [
        {
          "internalType": "uint256",
          "name": "index",
          "type": "uint256"
        },
        {
          "internalType": "uint256",
          "name": "amount",
          "type": "uint256"
        },
        {
          "internalType": "bytes32[]",
          "name": "merkleProof",
          "type": "bytes32[]"
        }
      ],
      "name": "getNodeForProof",
      "outputs": [
        {
          "internalType": "bytes32",
          "name": "",
          "type": "bytes32"
        }
      ],
      "stateMutability": "view",
      "type": "function"
    },
    {
      "inputs": [
        {
          "internalType": "uint256",
          "name": "index",
          "type": "uint256"
        }
      ],
      "name": "isClaimed",
      "outputs": [
        {
          "internalType": "bool",
          "name": "",
          "type": "bool"
        }
      ],
      "stateMutability": "view",
      "type": "function"
    },
    {
      "inputs": [],
      "name": "merkleRoot",
      "outputs": [
        {
          "internalType": "bytes32",
          "name": "",
          "type": "bytes32"
        }
      ],
      "stateMutability": "view",
      "type": "function"
    },
    {
      "inputs": [],
      "name": "token",
      "outputs": [
        {
          "internalType": "address",
          "name": "",
          "type": "address"
        }
      ],
      "stateMutability": "view",
      "type": "function"
    }
  ],
  "bytecode": "0x60c060405234801561001057600080fd5b50604051610d9e380380610d9e8339818101604052604081101561003357600080fd5b508051602090910151606082901b6001600160601b03191660805260a08190526001600160a01b0390911690610d1361008b6000398061031d52806104bd52806104e152508061038e52806106035250610d136000f3fe608060405234801561001057600080fd5b50600436106100725760003560e01c806361e9e1eb1161005057806361e9e1eb146101275780639e34070f146101a3578063fc0c546a146101d457610072565b80632e7ba6ef146100775780632eb4a7ab14610105578063495906571461011f575b600080fd5b6101036004803603608081101561008d57600080fd5b8135916001600160a01b0360208201351691604082013591908101906080810160608201356401000000008111156100c457600080fd5b8201836020820111156100d657600080fd5b803590602001918460208302840111640100000000831117156100f857600080fd5b5090925090506101f8565b005b61010d6104bb565b60408051918252519081900360200190f35b61010d6104df565b61010d6004803603606081101561013d57600080fd5b81359160208101359181019060608101604082013564010000000081111561016457600080fd5b82018360208201111561017657600080fd5b8035906020019184602083028401116401000000008311171561019857600080fd5b509092509050610503565b6101c0600480360360208110156101b957600080fd5b50356105e9565b604080519115158252519081900360200190f35b6101dc610601565b604080516001600160a01b039092168252519081900360200190f35b610201856105e9565b1561023d5760405162461bcd60e51b8152600401808060200182810382526028815260200180610c726028913960400191505060405180910390fd5b606061024a868686610625565b90506102766040518060400160405280600881526020016718dbdb9d1c9858dd60c21b81525082610671565b6000816040516020018082805190602001908083835b602083106102ab5780518252601f19909201916020918201910161028c565b6001836020036101000a0380198251168184511680821785525050505050509050019150506040516020818303038152906040528051906020012090506103488484808060200260200160405190810160405280939291908181526020018383602002808284376000920191909152507f000000000000000000000000000000000000000000000000000000000000000092508591506107979050565b6103835760405162461bcd60e51b8152600401808060200182810382526021815260200180610c9a6021913960400191505060405180910390fd5b61038c87610840565b7f00000000000000000000000000000000000000000000000000000000000000006001600160a01b031663a9059cbb87876040518363ffffffff1660e01b815260040180836001600160a01b0316815260200182815260200192505050602060405180830381600087803b15801561040357600080fd5b505af1158015610417573d6000803e3d6000fd5b505050506040513d602081101561042d57600080fd5b505161046a5760405162461bcd60e51b8152600401808060200182810382526023815260200180610cbb6023913960400191505060405180910390fd5b604080518881526001600160a01b038816602082015280820187905290517f4ec90e965519d92681267467f775ada5bd214aa92c0dc93d90a5e880ce9ed0269181900360600190a150505050505050565b7f000000000000000000000000000000000000000000000000000000000000000081565b7f000000000000000000000000000000000000000000000000000000000000000090565b60006105316040518060400160405280600881526020016718dbdb9d1c9858dd60c21b81525086338761085b565b606061053e863387610625565b905061056a6040518060400160405280600881526020016718dbdb9d1c9858dd60c21b81525082610671565b6000816040516020018082805190602001908083835b6020831061059f5780518252601f199092019160209182019101610580565b6001836020036101000a0380198251168184511680821785525050505050509050019150506040516020818303038152906040528051906020012090508092505050949350505050565b60008181526020819052604090205460ff165b919050565b7f000000000000000000000000000000000000000000000000000000000000000081565b6060806106318561093d565b9050606061063e85610a15565b9050606061064b8561093d565b905060606106598484610b95565b90506106658183610b95565b98975050505050505050565b6107938282604051602401808060200180602001838103835285818151815260200191508051906020019080838360005b838110156106ba5781810151838201526020016106a2565b50505050905090810190601f1680156106e75780820380516001836020036101000a031916815260200191505b50838103825284518152845160209182019186019080838360005b8381101561071a578181015183820152602001610702565b50505050905090810190601f1680156107475780820380516001836020036101000a031916815260200191505b5060408051601f198184030181529190526020810180517bffffffffffffffffffffffffffffffffffffffffffffffffffffffff16634b5c427760e01b1790529450610c509350505050565b5050565b600081815b85518110156108355760008682815181106107b357fe5b602002602001015190508083116107fa578281604051602001808381526020018281526020019250505060405160208183030381529060405280519060200120925061082c565b808360405160200180838152602001828152602001925050506040516020818303038152906040528051906020012092505b5060010161079c565b509092149392505050565b6000908152602081905260409020805460ff19166001179055565b610937848484846040516024018080602001858152602001846001600160a01b03168152602001838152602001828103825286818151815260200191508051906020019080838360005b838110156108bd5781810151838201526020016108a5565b50505050905090810190601f1680156108ea5780820380516001836020036101000a031916815260200191505b5060408051601f198184030181529190526020810180517bffffffffffffffffffffffffffffffffffffffffffffffffffffffff16632c24bd7f60e11b1790529550610c50945050505050565b50505050565b60608161096257506040805180820190915260018152600360fc1b60208201526105fc565b8160005b811561097a57600101600a82049150610966565b60608167ffffffffffffffff8111801561099357600080fd5b506040519080825280601f01601f1916602001820160405280156109be576020820181803683370190505b50905060001982015b8515610a0c57600a860660300160f81b828280600190039350815181106109ea57fe5b60200101906001600160f81b031916908160001a905350600a860495506109c7565b50949350505050565b604080518082018252601081527f303132333435363738396162636465660000000000000000000000000000000060208201528151602a80825260608281019094526001600160a01b03851692918491602082018180368337019050509050600360fc1b81600081518110610a8657fe5b60200101906001600160f81b031916908160001a905350600f60fb1b81600181518110610aaf57fe5b60200101906001600160f81b031916908160001a90535060005b6014811015610a0c578260048583600c0160208110610ae457fe5b1a60f81b6001600160f81b031916901c60f81c60ff1681518110610b0457fe5b602001015160f81c60f81b828260020260020181518110610b2157fe5b60200101906001600160f81b031916908160001a905350828482600c0160208110610b4857fe5b825191901a600f16908110610b5957fe5b602001015160f81c60f81b828260020260030181518110610b7657fe5b60200101906001600160f81b031916908160001a905350600101610ac9565b606082826040516020018083805190602001908083835b60208310610bcb5780518252601f199092019160209182019101610bac565b51815160209384036101000a600019018019909216911617905285519190930192850191508083835b60208310610c135780518252601f199092019160209182019101610bf4565b6001836020036101000a03801982511681845116808217855250505050505090500192505050604051602081830303815290604052905092915050565b80516a636f6e736f6c652e6c6f67602083016000808483855afa505050505056fe4d65726b6c654469737472696275746f723a2044726f7020616c726561647920636c61696d65642e4d65726b6c654469737472696275746f723a20496e76616c69642070726f6f662e4d65726b6c654469737472696275746f723a205472616e73666572206661696c65642ea264697066735822122091dbb1e5422cdb6b5348ce5433bbd3f1d369c9f6138caeeb355889cd6e3a21fb64736f6c63430007000033",
  "linkReferences": {},
  "deployedLinkReferences": {}
}